:020000040800F2
:1000000000500020AD2000085D200008632000089B
:10001000692000086F20000875200008000000001B
:100020000000000000000000000000007B2000082D
:100030008720000800000000932000089F2000088F
:10004000FD200008FD200008FD200008FD2000081C
:10005000FD200008FD200008FD200008FD2000080C
:10006000FD200008FD200008FD200008FD200008FC
:10007000FD200008FD200008FD200008FD200008EC
:10008000FD200008FD200008FD200008FD200008DC
:10009000FD200008FD200008FD200008D50700080D
:1000A000FD200008FD200008FD200008FD200008BC
:1000B000FD200008FD200008FD200008FD200008AC
:1000C000B5030008FD200008FD200008FD20000801
:1000D000FD200008010B0008FD200008FD2000089D
:1000E000F1070008FD20000800000000FD200008C6
:1000F000FD200008FD200008FD200008FD2000086C
:10010000FD200008FD200008FD200008FD2000085B
:10011000FD200008FD200008FD200008FD2000084B
:10012000FD200008FD200008FD200008FD2000083B
:1001300010B5054C237833B9044B13B10448AFF321
:1001400000800123237010BD080000200000000083
:100150004821000808B5034B1BB103490348AFF31E
:10016000008008BD000000000C00002048210008AD
:10017000430803F05533C01A830803F0333300F00B
:100180003330184400EB101000F00F3000EB00206B
:1001900000EB0040000E704780B400AF044BDB68FA
:1001A0001B0A03F007031846BD4680BC704700BF1A
:1001B00000ED00E080B483B000AF0346FB7197F917
:1001C0000730002B0BDBFB7903F01F02064997F980
:1001D00007305B09012000FA02F241F8232000BF3A
:1001E0000C37BD4680BC704700E100E080B483B0AE
:1001F00000AF03463960FB7197F90730002B0ADB2B
:100200003B68DAB20C4997F907301201D2B20B44BD
:1002100083F800230AE03B68DAB20849FB7903F06F
:100220000F03043B1201D2B20B441A7600BF0C3705
:10023000BD4680BC704700BF00E100E000ED00E07B
:1002400080B489B000AFF860B9607A60FB6803F0F1
:100250000703FB61FB69C3F10703042B28BF0423D9
:10026000BB61FB690433062B02D9FB69033B00E049
:1002700000237B614FF0FF32BB6902FA03F3DA43DC
:10028000BB681A407B699A404FF0FF317B6901FAE5
:1002900003F3D9437B680B40134318462437BD460C
:1002A00080BC704780B582B000AF3F4B9B693E4A2F
:1002B00043F0080393613D4B1B683C4A43F0706375
:1002C00013603A4B1B68394A43F070431360FFF7E1
:1002D00063FF0346002200211846FFF7B1FF0346E3
:1002E00019462020FFF782FF2020FFF763FF2E4BE7
:1002F000DB692D4A43F40013D3612D4BDB682C4A94
:1003000023F00103D3602A4B1B68294A23F0C10361
:100310001360274B5B6823F03F03254A43F0240317
:100320005360234B1B6A23F03F03214A43F00B0326
:1003300013621F4BDB6923F44F4323F0FF031C4A76
:1003400043F4004343F01E03D361194B1B68184A62
:1003500023F01A031360164B9B6823F4434323F0E6
:10036000FF03134A43F480439360114B1B68104A08
:1003700043F0010313600E4B1B680D4A43F4806386
:1003800013600B4B5B680A4A43F48073536000238D
:10039000FB7102E0FB790133FB71FB79FD2BF9D98D
:1003A00000BF0837BD4680BD00100240000C014070
:1003B0000054004080B400AF094B5B691B0ADBB2FC
:1003C00003F01F03DAB2074B1A70054B5B69044A4E
:1003D00023F45F43536100BFBD4680BC704700BF3C
:1003E000005400402400002080B400AF0E4B1B7866
:1003F000DBB203F00403042B06D00B4B1B78DBB2FB
:1004000003F02003202B0AD1084B1B68074A43F452
:1004100000731360054B5B69044B9B6900E000BFF0
:10042000BD4680BC704700BF24000020005400403F
:1004300080B584B000AF7860154B00221A7000239D
:10044000FB8119E0FB895A1CFA814CF2503293422D
:1004500007D90F4B1B78DBB243F02003DAB20C4B09
:100460001A700B4B1B78DBB2002B05D0FFF7BCFFDB
:10047000074B1B78DBB207E0064B5A697B681340D9
:100480007A689A42DED1002318461037BD4680BDF7
:10049000240000200054004080B400AF034B002231
:1004A0001A7000BFBD4680BC704700BF240000200A
:1004B00080B400AF034B1B78DBB21846BD4680BC4E
:1004C000704700BF2400002080B584B000AF034611
:1004D0003A60FB710B46BB80374B1B78DBB2002BBD
:1004E00005D0FFF781FF344B1B78DBB25FE000BF24
:1004F000324B9B6903F00203022BF9D02F4B1B6890
:1005000023F440632D4A43F4806313602B4B1B6834
:100510002A4A43F480731360274B00221A7000BFED
:10052000264B5B6903F00103012BF9D1234B5B6977
:10053000224B1B6923F0FF03FA79520011461F4A30
:100540000B4313610220FFF773FF0346002B03D018
:10055000194B1B78DBB22AE0184B5B69174B9B6980
:100560000023FB8118E0154B1B6923F0FF03FA8978
:1005700039680A4412781146104A0B4313618020EF
:10058000FFF756FF0346002B03D00B4B1B78DBB263
:100590000DE0FB890133FB81FA89BB889A42E2D3E3
:1005A000064B1B68054A43F400731360002318468A
:1005B0001037BD4680BD00BF24000020005400401D
:1005C00080B584B000AF03463A60FB710B46BB8038
:1005D0003D4B1B78DBB2002B05D0FFF705FF3A4BF4
:1005E0001B78DBB26BE000BF384B9B6903F0020362
:1005F000022BF9D0354B1B6823F44063334A43F494
:1006000080631360314B1B68304A43F4807313607E
:1006100000BF2E4B5B6903F00103012BF9D12B4B7B
:100620005B692A4B1B6923F0FF03FA7952001343DD
:10063000264A43F0010313610220FFF7F9FE034647
:10064000002B03D0204B1B78DBB238E01F4B5B69DB
:100650001E4B9B690023FB8110E000BF1B4B5B69B5
:1006600003F04003402BF9D1184B1969FB893A6814
:100670001344CAB21A70FB890133FB81FA89BB8823
:10068000013B9A42E9DB114B1B68104A23F480635B
:1006900013600E4B1B680D4A43F40073136000BFD8
:1006A0000A4B5B6903F04003402BF9D1074B1969F2
:1006B000BB88013B3A681344CAB21A70002318463B
:1006C0001037BD4680BD00BF24000020005400400C
:1006D00080B582B000AF03460A46FB711346BB717A
:1006E000BA1DFB7901211846FFF7EEFE03461846B6
:1006F0000837BD4680BD80B584B000AF0346FB71AE
:1007000007F10F02FB7901211846FFF759FFFB7B28
:1007100018461037BD4680BD80B582B000AF034695
:100720000A46FB711346BB71BA79FB79114618462C
:10073000FFF7CEFF0346002B03D0064B1B78DBB23E
:1007400004E0FB791846FFF7D6FF03461846083742
:10075000BD4680BD2400002080B584B000AF0346B4
:10076000FB710B46BB7113467B71BB793B737B7985
:100770007B7307F10C02FB7902211846FFF7A4FEF8
:10078000034618461037BD4680BD000080B485B0D2
:1007900000AF78607B6803F00703FB600C4BDB68FD
:1007A000BB60BA684FF6FF031340BB60FB681A02D8
:1007B000BB68134343F0BF6343F40033BB60044A98
:1007C000BB68D36000BF1437BD4680BC704700BF14
:1007D00000ED00E080B500AF044B5B69034A43F4D1
:1007E0004073536100F040FD00BF80BD0004014034
:1007F00080B500AF044B5B69034A43F47C4353610B
:1008000000F032FD00BF80BD0004014080B400AFA5
:100810002C4B1B682B4A43F00203136000BF294B8B
:100820001B6803F00203022BF9D1274B1B68264AF1
:1008300043F48033136000BF234B1B6803F4003381
:10084000B3F5003FF8D1204B5B6823F474131E4AC4
:1008500043F4E81353601C4B1B681B4A43F080733E
:10086000136000BF184B1B6803F00073B3F1007FE7
:10087000F8D1154B5B6823F47F5323F03003124A01
:1008800043F480635360104B5B6823F003030E4A0C
:1008900043F00203536000BF0B4B5B6803F00C0393
:1008A000082BF9D172B6094B094A5A60074B052249
:1008B0001A60064B00229A6062B600BFBD4680BC3B
:1008C000704700BF002002400010024010E000E02E
:1008D0004119010080B400AF0B4B9B690A4A43F0F9
:1008E0003C039361094B5B6823F47003074A43F4AC
:1008F00000135360054B1B69044A43F40053136112
:1009000000BFBD4680BC704700100240001001408F
:1009100080B483B000AF78600A4B00229A6008E090
:10092000084B1B6803F48033002B02D07B68013B2B
:100930007B607B68002BF3D100BF0C37BD4680BCC9
:10094000704700BF10E000E080B500AF254B9B6909
:10095000244A43F001039361224BDB69214A43F0AF
:100960008053D3610320FFF711FF1F4B5B681E4AC2
:1009700043F0007353601D4B5B681C4A43F0070350
:100980005360FFF743FFFFF7A5FFFFF78BFCFFF76F
:1009900083FDC02001F04CF96420FFF7B9FFFFF799
:1009A00087FD0346002B06D0114BDB68104A83F409
:1009B0000053D360EBE700BF0D4B1B690C4A43F4B7
:1009C0000053136100F046FC00F06AF90A20FFF7BB
:1009D0009FFF012000F0BEFF00F09AFF00F0AAFC8C
:1009E000FCE700BF0010024000000140002004E0CE
:1009F0000010014080B400AF044BDB681B0A03F019
:100A000007031846BD4680BC704700BF00ED00E0FC
:100A100080B483B000AF0346FB7197F90730002B19
:100A20000BDBFB7903F01F02064997F907305B09DE
:100A3000012000FA02F241F8232000BF0C37BD4626
:100A400080BC704700E100E080B483B000AF034693
:100A50003960FB7197F90730002B0ADB3B68DAB28B
:100A60000C4997F907301201D2B20B4483F80023E6
:100A70000AE03B68DAB20849FB7903F00F03043B54
:100A80001201D2B20B441A7600BF0C37BD4680BCAF
:100A9000704700BF00E100E000ED00E080B489B0E5
:100AA00000AFF860B9607A60FB6803F00703FB6190
:100AB000FB69C3F10703042B28BF0423BB61FB6957
:100AC0000433062B02D9FB69033B00E000237B6162
:100AD0004FF0FF32BB6902FA03F3DA43BB681A40F6
:100AE0007B699A404FF0FF317B6901FA03F3D943E8
:100AF0007B680B40134318462437BD4680BC7047C3
:100B000080B582B000AF614B5B68FB715F4B1B68C7
:100B100003F00803002B03D05D4B00221A70B2E0F3
:100B2000FB79F82B00F0A880FB79FA2B00F0A48069
:100B3000FB79FB2B00F0A080FB79FC2B00F09C8064
:100B4000FB79FE2B00F09880FB79FF2B00F094805E
:100B50004F4B1B78DBB2002B04D04D4B1B78DBB224
:100B6000042B04D197F90730002B80F2878097F986
:100B70000730002B22DA474AFB791370FB7923F008
:100B80000F03BB71FB79F02B03D1414B04221A7088
:100B900079E0BB79F02B03D13D4B00221A7072E053
:100BA000BB79C02B02D0BB79D02B03D1384B0122AB
:100BB0001A7068E0364B02221A7064E0354B1B78DD
:100BC000DBB203F0F003F02B5AD0334B1B78DBB2CF
:100BD000FF2B07D0FB7903F00F032F4A1278D2B214
:100BE00093424FD12A4B1B78DBB2022B06D12B4A02
:100BF000FB791370264B03221A7044E0244B1B78B8
:100C0000DBB2032B2AD1234B1B78DBB203F0F003BA
:100C1000902B15D1FB79002B12D11E4B1B78DBB228
:100C20005BB203F00F035BB263F07F035BB2D8B239
:100C30001A4B1B78DBB20022194600F077F809E066
:100C4000144B1B78D8B2154B1B78DBB2FA791946D6
:100C500000F06CF80E4B02221A7014E00C4B1B785B
:100C6000DBB2012B0FD10B4B1B78DBB2F9790022E1
:100C7000184600F05BF806E000BF04E000BF02E0A9
:100C800000BF00E000BF0837BD4680BD003801400E
:100C90002600002025000020000000202700002062
:100CA00080B500AF1E4B9B691D4A43F4804343F05F
:100CB000040393611B4B5B6823F47063194A43F48C
:100CC00080635360FFF796FE034600220121184619
:100CD000FFF7E4FE034619462520FFF7B5FE252061
:100CE000FFF796FE104BDB6823F4A05323F00C03B0
:100CF0000D4A43F00403D3600B4B1B690A4A23F4EB
:100D000040531361084B4FF410629A60064BDB6846
:100D1000054A43F4005343F02003D36000BF80BD75
:100D200000100240000801400038014080B582B048
:100D300000AF0346FB710B46BB7113467B71FB7919
:100D400003F0F003902B50D0902B03DC802B00F0AD
:100D5000DA80FEE0B02B0ED0E02B40F0FA80BB79B9
:100D60009AB27B799BB2DB019BB213449BB21846CB
:100D700000F0EEFCEDE0BB79012B04D17B79184645
:100D800000F01AFDE2E0BB79032B04D17B79184611
:100D900000F024FDDAE0BB79102B0AD17B793F2BE0
:100DA00003D9012000F0D6FDD0E0002000F0D2FDF4
:100DB000CCE0BB79112B11D17B79532B03D90220C5
:100DC00000F022FDC2E07B79292B03D9012000F03D
:100DD0001BFDBBE0002000F017FDB7E0BB797B2BCB
:100DE00040F0B48000F012FEB0E0BB79182B03D1C4
:100DF000022000F0FFFEACE0BB79192B03D10220EA
:100E000000F007FFA5E0BB791A2B03D1022000F008
:100E1000C4FE9EE0BB791B2B03D1022000F0AEFE86
:100E200097E0BB791C2B03D1022000F0D4FE90E0A8
:100E3000BB791D2B03D1022000F0BEFE89E0BB79F7
:100E40001E2B0AD9BB79232B07D8BB791E3BDBB2FB
:100E50000221184600F076FE7BE0BB79232B0AD9ED
:100E6000BB792D2B07D8BB79243BDBB20221184676
:100E700000F00CFE6DE0BB792F2B09D9BB79332B29
:100E800006D8BB79303BDBB2184600F073FC60E05B
:100E9000BB79342B03D1002000F07EFC59E0BB79F4
:100EA000352B03D1012000F077FC52E0BB79362BC3
:100EB00003D1022000F070FC4BE0BB79372B02D14C
:100EC00000F0E6FC45E0BB79382B02D100F0F0FCE5
:100ED0003FE0BB793A2B02D100F01AFD39E0BB7933
:100EE0003B2B02D100F0C6FC33E0BB793B2B0AD987
:100EF000BB79402B07D8BB793C3BDBB202211846BB
:100F000000F0F2FD25E0BB79402B11D9BB79602BB5
:100F10000ED8BB79413BDAB2FB79902B14BF012389
:100F20000023DBB21946104600F090FD00BF0FE031
:100F3000BB79392B0CD1FB79902B14BF01230023F3
:100F4000DBB21946012000F0BFFC02E000BF00E068
:100F500000BF0837BD4680BD80B400AF044BDB68DE
:100F60001B0A03F007031846BD4680BC704700BF4C
:100F700000ED00E080B483B000AF0346FB7197F949
:100F80000730002B0BDBFB7903F01F02064997F9B2
:100F900007305B09012000FA02F241F8232000BF6C
:100FA0000C37BD4680BC704700E100E080B483B0E0
:100FB00000AF03463960FB7197F90730002B0ADB5D
:100FC0003B68DAB20C4997F907301201D2B20B44F0
:100FD00083F800230AE03B68DAB20849FB7903F0A2
:100FE0000F03043B1201D2B20B441A7600BF0C3738
:100FF000BD4680BC704700BF00E100E000ED00E0AE
:1010000080B489B000AFF860B9607A60FB6803F023
:101010000703FB61FB69C3F10703042B28BF04230B
:10102000BB61FB690433062B02D9FB69033B00E07B
:1010300000237B614FF0FF32BB6902FA03F3DA430E
:10104000BB681A407B699A404FF0FF317B6901FA17
:1010500003F3D9437B680B40134318462437BD463E
:1010600080BC704780B500AF3E4B9B693D4A43F062
:101070000C0393613C4B1B691B0C1B043A4A43F461
:10108000885343F011031361374B5B691B0C1B043E
:10109000354A43F4885343F011035361334B1B68C3
:1010A000324A43F47F431360304B9B682F4A43F42A
:1010B0007F4393602D4BDB682C4A43F47F43D3601E
:1010C000FFF74AFF0346002200211846FFF798FF6A
:1010D000034619461720FFF769FF1720FFF74AFF5D
:1010E000FFF73AFF0346002200211846FFF788FF6A
:1010F000034619462820FFF759FF2820FFF73AFF3B
:101100001B4B1B681B0C1B04194A43F44C5343F044
:1011100033031360164B1B689BB2154A43F04C53C4
:1011200043F44C131360134B1B6823F47023114AD0
:1011300043F4403313600F4B1B690E4A43F4801392
:1011400013610C4B1B6823F470430A4A43F4E043D9
:101150001360084B1B69074A43F00803136100BF83
:1011600080BD00BF001002400000014000040140AB
:1011700000080140000C014080B582B002AFFFF7CB
:101180008BF97D2361221B21002000F081FD0120CD
:10119000FFF7BEFB10230093012300221021002043
:1011A00000F074FE0120FFF7B3FB032301934023FB
:1011B0000093002300220021002000F027FE0120E0
:1011C000FFF7A6FB002000F013FFFFF771F90346BD
:1011D000002B06D0054BDB68044A83F40053D36030
:1011E000CDE700BF00BFBD4680BD00BF001001407D
:1011F00080B400AF164BDB69154A43F00103D3619D
:101200004FF080431B6823F478734FF0804243F023
:10121000E00313604FF080434FF48042DA6245F2FE
:10122000D5524FF080439A624FF080435B694FF094
:10123000804243F0010353614FF080431B684FF03D
:10124000804243F00103136000BFBD4680BC70477D
:101250000010024080B500AFFFF704FFFFF78CFFDE
:10126000FFF7C6FF00BF80BD80B582B000AF2C4B3A
:101270009B681B0ABB71BB79002B4CD0BB79B3FABE
:1012800083F3DBB2183BFB71FB79C3F10703FB71FE
:10129000BB791846FEF76CFF03467B717B79022B06
:1012A00006D9204B5B691F4A43F0FF03536133E0CB
:1012B000BB79812B01D10023FB71FB791A4AD35CE6
:1012C0003B71184B1A693B79DB4319043B790B439B
:1012D000144913430B617B79012B1DD1FB79134A10
:1012E000D35CDBB2D943FB790F4AD35CDBB25AB291
:1012F0004BB213405AB2FB79D1B20B4AD154FA79AE
:10130000FB790B498A5CD1B2084AD154FB79084A6F
:101310000021D15400E000BF0837BD4680BD00BFAA
:10132000000C01400008014028000020300000208F
:101330003800002080B588B002AFA74B1B78DBB225
:10134000002B21D0A44B1B78DBB2012B08D100234A
:101350000093012300220C21002000F097FD07E0FC
:1013600000230093012300220821002000F08EFDBD
:10137000994B1B78DBB203F00803002B00F0DA81F5
:10138000954B00221A70D5E1944B1B78DBB2012BF0
:1013900021D10023FB7511E0914BDB68904A83F06B
:1013A0001003D3600023BB7502E0BB7D0133BB7526
:1013B000BB7D1F2BF9D9FB7D0133FB75FB7DFD2B1D
:1013C000EAD9874B1B69864A43F480131361834B28
:1013D00000221A7046E0814B1B78DBB2022B41D110
:1013E00000237B7532E07F4B1B885B089AB27D4BF4
:1013F0001B8803F001039BB25B429BB223F497432B
:1014000023F07F039BB253409AB2764B1A80754B00
:101410001B8803F00103002B06D1714B1B69704A36
:1014200043F48013136105E06D4B1B696C4A43F074
:101430001003136100233B7502E03B7D01333B75D4
:101440003B7D1F2BF9D97B7D01337B757B7DFD2B8C
:10145000C9D9634B1B69624A43F4801313615F4B24
:1014600000221A704FF080435B6A7B825E4B1B78D0
:10147000DBB2012B08D17B8A1A46D20113449BB2FE
:10148000C3F30D037B8210E0574B1B78DBB2022BBA
:101490000BD17B8A1A4612011A44120113449B0095
:1014A0009AB243F6FC7313407B82504B1B78DBB23D
:1014B0007B817B8AA3F500537A8902FB03F34C4AB4
:1014C00082FB03121A449211DB17D31A9BB203F565
:1014D00000539BB2C3F30D037B82464B1B889BB228
:1014E000C3F30D039AB2434B1A80434B1B78DBB214
:1014F00003F00303DAB2404B1A703F4B1B78DBB2A8
:10150000C3F10303DBB21B017B723A4B1B889AB217
:101510007B8A13449BB2C3F30E03FB60374B1B78EB
:10152000DBB2012B70D0022B00F0BE80002B40F00C
:101530000281FB681B0A0133314A32F81330FB8009
:10154000FB681B0A2E4A32F81330BB80FA88FB680E
:10155000DB43DBB2B888F988411A01FB03F3294960
:10156000A1FB0313DB09134403F5B3533B603B6852
:101570005B0B0C330F2B0DD81F4B1B78DBB2032BEF
:1015800008D17B7A0093012300221021002000F073
:101590007DFCD0E03B685B0B0C33102B0DD9164B58
:1015A0001B78DBB2002B08D17B7A00930123002249
:1015B0001021002000F06AFCBDE03B685B0B03F1EA
:1015C0000C013B68C3F30C027B7A00934FF4005389
:1015D000002000F05BFCAEE044000020430000204F
:1015E000000C0140040000204200002040000020C8
:1015F00009040281020000200100002041000020B7
:101600006C21000881808080FB681B0A01334B4AF3
:1016100032F81330FB80FB681B0A484A32F813305B
:10162000BB80FA88FB68DB43DBB2B888F988411AD3
:1016300001FB03F34249A1FB0313DB0913443B60A5
:101640003B689B0A04330F2B0DD83E4B1B78DBB253
:10165000032B08D17B7A0093012300221021002064
:1016600000F014FC67E03B689B0A0433102B0DD993
:10167000344B1B78DBB2002B08D17B7A009301231B
:1016800000221021002000F001FC54E03B689B0A7E
:10169000191D3B68C3F309027B7A00934FF4806302
:1016A000002000F0F3FB46E0FB68B3F5005F03D2D7
:1016B0004FF40053FB600DE0FB68B3F5C04F03D35C
:1016C00045F6FF73FB6005E0FB68A3F50053C3F329
:1016D0000D03FB60FB68DB0901331B4A32F8133052
:1016E000FB80FB68DB09184A32F81330BB80F988AD
:1016F000FB68DB4303F07F03B888FA88821A02FB99
:1017000003F2124BA3FB0203D21A520813449B09A3
:101710000B443B603B685B0A03F110013B68C3F379
:101720000802002300934FF40073002000F0AEFB8A
:1017300000BF00E000BF1837BD4680BD7022000822
:1017400081808080010000207423000811080402B9
:1017500080B483B000AF0346FB80FB88C3F30D0366
:101760009AB2034B1A8000BF0C37BD4680BC70474D
:101770000200002080B483B000AF0346FB71FB7908
:1017800003F00303DAB2034B1A7000BF0C37BD46F7
:1017900080BC70470100002080B483B000AF0346D6
:1017A000FB71044AFB79137000BF0C37BD4680BC47
:1017B000704700BF4100002080B483B000AF0346F3
:1017C000FB71FB7903F07F03DAB2034B1A7000BFA1
:1017D0000C37BD4680BC70474000002080B483B009
:1017E00000AF0346FB71FB7903F07F03054A32F833
:1017F00013204FF080439A6200BF0C37BD4680BC77
:10180000704700BF7824000880B483B000AF03465F
:10181000FB71174B1B78DBB2FA799A4223D0FB7924
:10182000002B05D14FF080434FF48042DA620EE086
:10183000FB79012B04D14FF080438022DA6206E06D
:10184000FB79022B03D14FF080431022DA624FF074
:1018500080435B694FF0804243F001035361044AC7
:10186000FB79137000E000BF0C37BD4680BC7047A9
:101870004200002080B400AF4FF080435B694FF01E
:10188000804243F00103536100BFBD4680BC7047F6
:1018900080B400AF054B1B78DBB2022B02D0034BA8
:1018A00001221A7000BFBD4680BC70474300002073
:1018B00080B400AF034B02221A7000BFBD4680BC4B
:1018C000704700BF4300002080B483B000AF0346E0
:1018D0000A46FB711346BB71BB79012B03D10B4B3D
:1018E00000221A700DE0094AFB791370BB79022BB4
:1018F00007D1064B1B78DBB243F00803DAB2034B87
:101900001A7000BF0C37BD4680BC704744000020F1
:1019100080B483B000AF0E4B1B690D4A43F4002323
:1019200013610023FB8002E0FB880133FB80FB880E
:1019300040F6FD729342F7D9054B1B69044A43F008
:101940000803136100BF0C37BD4680BC704700BF61
:10195000000C014080B483B000AF0346FB71FB79FB
:10196000002B08D10A4BDB79DBB203F07F03DAB23C
:10197000074BDA7107E0064BDB79DBB263F07F03DC
:10198000DAB2034BDA7100BF0C37BD4680BC70473A
:101990002800002080B483B000AF0346FB710B46E3
:1019A000BB7113467B717B79012B0FD1FB79154AF3
:1019B000D35CDBB25AB297F90630DB435BB213401B
:1019C0005AB2FB79D1B20F4AD15416E0FB790D4AD5
:1019D000D35CD9B2FB79BA790A43D1B2094AD1545E
:1019E0007B79022B09D1FB79074AD35CD9B2FB7909
:1019F000BA790A43D1B2044AD15400BF0C37BD466C
:101A000080BC7047280000203800002080B483B0DC
:101A100000AF0023FB7106E0FB790B4A0021D15493
:101A2000FB790133FB71FB79062BF5D9064BDB798A
:101A3000DBB223F07F03DAB2034BDA7100BF0C375D
:101A4000BD4680BC704700BF2800002080B582B032
:101A500000AF03460A46FB711346BB71FB791F2B8F
:101A600001D91F23FB71FB79DB08D8B2FB7903F0A6
:101A70000703012202FA03F3DBB2BA791946FFF732
:101A800089FF00BF0837BD4680BD000080B582B029
:101A900000AF03460A46FB711346BB71FB79092B65
:101AA00001D90923FB71FB790E4AA2FB03239B0892
:101AB000DBB20433D8B2FA790A4BA3FB02139908BC
:101AC0000B469B000B44D31ADBB21A46012393400A
:101AD000DBB2BA791946FFF75DFF00BF0837BD4694
:101AE00080BD00BFCDCCCCCC80B582B000AF03466A
:101AF0000A46FB711346BB71FB79042B01D9042301
:101B0000FB71FB790E4AA2FB03235B08DBB20633B1
:101B1000D8B2FA790A4BA3FB021359080B465B00B3
:101B20000B44D31ADBB21A4601239340DBB2BA79D5
:101B30001946FFF72FFF00BF0837BD4680BD00BF25
:101B4000ABAAAAAA80B582B000AF03460A46FB71D1
:101B50001346BB71FB79042B01D90423FB71FB797C
:101B60000333012202FA03F3DBB2BA7919460620E5
:101B7000FFF710FF00BF0837BD4680BD80B582B0BB
:101B800000AF0346FB71FB791A4620210420FFF7C2
:101B900001FF00BF0837BD4680BD80B582B000AFF1
:101BA0000346FB71FB791A4640210520FFF7F2FE40
:101BB00000BF0837BD4680BD80B582B000AF034688
:101BC000FB71FB791A4640210420FFF7E3FE00BFBA
:101BD0000837BD4680BD80B582B000AF0346FB71BB
:101BE000FB791A4680210520FFF7D4FE00BF083795
:101BF000BD4680BD80B582B000AF0346FB71FB7966
:101C00001A4680210420FFF7C5FE00BF0837BD46F5
:101C100080BD80B582B000AF0346FB71FB791A46E8
:101C200020210520FFF7B6FE00BF0837BD4680BD66
:101C300080B586B000AF0346FB71FF220321602010
:101C4000FEF78AFD104A07F10C0307CA03C31A7096
:101C500007F10C031A4609216020FEF735FCFB79D9
:101C60001A46B7216020FEF777FDFEF721FC0346F8
:101C7000002B01D0032303E0044B01221A70002340
:101C800018461837BD4680BD602100084500002079
:101C900080B58AB000AFBA607B600346FB730B4629
:101CA000BB73594B1B78002B01D10123A7E0BB7BF1
:101CB0000E2B02D9BB7B5A2B01D902239FE07B68F4
:101CC000002B01D102239AE0BB68B3F5801F01D33A
:101CD000022394E07B68B3F5801F01D302238EE0DA
:101CE000BB68002B08D1BB7B043BDB017B6200237C
:101CF0003B620123FB612CE07B68012B11D1BB7B94
:101D0000DB011A46BB68DB011344A3F500737B6259
:101D1000BB6803F10073013BDB013B620123FB6104
:101D200017E0BB7BDB011946BB68DA017B68B2FBBD
:101D3000F3F30B44A3F500737B62BB68DB017A68A5
:101D4000B3FBF2F2796801FB02F29B1A3B627B68FB
:101D5000FB61FB7B002B01D11A2300E022233B74A3
:101D6000FB691B0ADBB27B74FB69DBB2BB747B6A69
:101D70001B0CDBB203F00303DBB2FB747B6A1B0AB0
:101D8000DBB23B757B6ADBB27B75FB691B0BDBB29D
:101D900023F00F03DAB23B6A1B0CDBB203F00F0334
:101DA000DBB21343DBB2BB753B6A1B0ADBB2FB75CC
:101DB0003B6ADBB23B7607F110031A46092160202B
:101DC000FEF782FB00237B8302E07B8B01337B8366
:101DD0007B8BB3F5007FF8D3FB7B002B01D1202355
:101DE00000E080231A46B1216020FEF7B5FCFEF723
:101DF0005FFB0346002B01D0032300E000231846BD
:101E00002837BD4680BD00BF4500002090B583B097
:101E100000AF0446084611461A462346FB710346A6
:101E2000BB710B467B7113463B71174B1B78002B24
:101E300001D1012323E0FB79022B01D902231EE00B
:101E4000FB791033D9B2BA797B791343DAB23B7993
:101E50001343DAB23B7E1343DAB23B7F1343DBB268
:101E600043F00C03DBB21A466020FEF775FCFEF768
:101E70001FFB0346002B01D0032300E0002318467C
:101E80000C37BD4690BD00BF4500002080B58AB02C
:101E900000AFB9607A603B600346FB73534B1B781D
:101EA000002B01D101239DE0BB68032B01D8022345
:101EB00098E0BB68B3F5617F01D9022392E03B68EB
:101EC000002B01D102238DE07B68B3F5801F01D385
:101ED000022387E03B68B3F5801F01D3022381E032
:101EE000FB7B022B01D902237CE07B68002B0AD10B
:101EF000BB6803F10073043BDB017B6200233B62A0
:101F00000123FB612AE03B68012B10D1BA687B6892
:101F1000134403F10073043BDB017B627B6803F134
:101F20000073013BDB013B620123FB6116E0BB68F0
:101F3000DA017B68D9013B68B1FBF3F31344A3F5E5
:101F400000737B627B68DB013A68B3FBF2F23968AD
:101F500001FB02F29B1A3B623B68FB61FB7BDB00EF
:101F6000DBB22A33DBB23B74FB691B0ADBB27B7446
:101F7000FB69DBB2BB747B6A1B0CDBB203F00303AF
:101F8000DAB297F830301343DBB2FB747B6A1B0A7A
:101F9000DBB23B757B6ADBB27B75FB691B0BDBB28B
:101FA00023F00F03DAB23B6A1B0CDBB203F00F0322
:101FB000DBB21343DBB2BB753B6A1B0ADBB2FB75BA
:101FC0003B6ADBB23B7607F110031A460921602019
:101FD000FEF77AFAFEF76CFA0346002B01D00323D2
:101FE00000E0002318462837BD4680BD450000208C
:101FF00080B584B000AF0346FB71174B1B78002BF4
:1020000001D1012324E0FB79022B01D902231FE037
:1020100003216020FEF780FB0346FB73FB7901225E
:1020200002FA03F35BB2DB435AB297F90F30134065
:102030005BB2FB73FB7B1A4603216020FEF78CFB2F
:10204000FEF736FA0346002B01D0032300E00023FD
:1020500018461037BD4680BD4500002080B400AF53
:10206000FEE780B400AFFEE780B400AFFEE780B4C7
:1020700000AFFEE780B400AFFEE780B400AF00BF62
:10208000BD4680BC704780B400AF00BFBD4680BC79
:10209000704780B400AF00BFBD4680BC704780B4BD
:1020A00000AF00BFBD4680BC704700000D488546AC
:1020B000AFF300800C480D490D4A002302E0D458CC
:1020C000C4500433C4188C42F9D30A4A0A4C002382
:1020D00001E013600432A242FBD300F011F8FEF7D6
:1020E00033FCFEE700500020000000200800002024
:1020F000802500080800002048000020FEE70000BE
:1021000070B500250C4E0D4CA41BA410A54209D19E
:1021100000F01AF800250A4E0A4CA41BA410A54290
:1021200005D170BD56F8253098470135EEE756F8D1
:10213000253098470135F2E7782500087825000812
:10214000782500087C250008F8B500BFF8BC08BC5D
:102150009E467047F8B500BFF8BC08BC9E46704765
:10216000108080808080808080000000B4EE61EC70
:1021700010EAC1E775E52AE3E2E09BDE57DC15DAF9
:10218000D5D797D55BD321D1E9CEB3CC80CA4EC881
:102190001EC6F1C3C5C19BBF74BD4EBB2AB909B7EA
:1021A000E9B4CBB2AFB095AE7DAC67AA53A841A657
:1021B00031A423A216A00B9E039CFC99F797F495DB
:1021C000F393F391F68FFA8D008C088A12881E869D
:1021D0002B843A824B805E7E727C897AA178BB76B2
:1021E000D674F3721271336F566D7A6BA069C8673B
:1021F000F1651C6449627760A75ED95C0D5B42594A
:102200007957B155EB5327526450A34EE34C264BFC
:102210006949AF47F6453E448942D440223F703D6C
:10222000C13B133A6638BB3612356A33C4311F30AE
:102230007C2EDA2C3A2B9B29FE276226C8242F23DA
:10224000972102206D1EDA1C491BB9192A189D1608
:1022500011158713FE117610F00E6C0DE80B660A4F
:10226000E6086707E9056D04F20278010000000046
:1022700000F084EA25E5E5DFC1DAB9D5CDD0FCCBA5
:1022800045C7A8C225BEBAB967B52CB109ADFCA82F
:1022900005A524A1589DA199FF957092F58E8D8B6F
:1022A0003888F584C481A47E967B9878AB75CE720D
:1022B0000070426D936AF2676065DD626660FE5D84
:1022C000A25B54591257DD54B4529650844E7E4C42
:1022D000824A9248AC46D144FF4238417B3FC73DD9
:1022E0001C3C7A3AE2385237CB354C34D532673120
:1022F0000030A12E492DF92BB02A6E293328FF2654
:10230000D125AA2489236E225A214B20421F3F1E29
:10231000411D491C561B681A80199C18BD17E316ED
:102320000E163D157114A913E51226126B11B31088
:102330000010500FA50EFD0D580DB70C1A0C7F0B99
:10234000E90A550AC5093709AD082608A1071F077C
:10235000A1062406AB053405C0044E04DF03720356
:1023600007039F023802D50173011301B5005A001B
:102370000000000000E0E0DBD1D7D3D3E5CF07CCED
:1023800039C87BC4CDC02EBD9DB91BB6A8B243AF22
:10239000ECABA3A867A539A2189F039CFC980196F3
:1023A00012932F90588D8D8ACE8719857082D27F97
:1023B0003F7DB67A3878C4755A73FA70A46E586C3B
:1023C000156ADB67AB65836365614F5F425D3D5BAB
:1023D00041594D5760557C53A051CB4FFE4D384C61
:1023E0007A4AC24812476945C7432B429640083F84
:1023F000803DFE3B823A0D399E373436D1347333FB
:102400001B32C8307B2F332EF02CB32B7A2A47296E
:102410001928F026CB25AB24902379226721592057
:10242000501F4A1E491D4D1C541B5F1A6E198118FE
:102430009817B316D115F314191442136E129E1186
:10244000D2100810420F7F0EBF0D030D490C920BE6
:10245000DF0A2E0A8009D5082C088607E306430602
:10246000A5050A057104DB034703B502260299019D
:102470000F01860000000000D5559D52844F894C05
:10248000AB49E8463F44B1413A3FDB3C933A6138BF
:1024900044363C3446326430942ED52C262B882981
:1024A000FA277A260925A62350220621C91F981E3D
:1024B000731D581C481B421A461954186A178A166D
:1024C000B115E114191458139E12EC1140119A1011
:1024D000FB0F620FCE0E400EB70D340DB50C3B0C4A
:1024E000C60B550BE80A7F0A1B0ABA095C090209E8
:1024F000AC0859080908BC0771072A07E506A306B6
:1025000063062606EB05B2057C0547051405E404C1
:10251000B50488045C0432040A04E303BE039A038E
:102520007703560336031703FA02DD02C202A7023D
:102530008E0275025E02470231021C020802F4019B
:10254000E201D001BE01AD019D018E017F0171014B
:102550006301550149013C01300125011A011001B7
:102560000501FC00F200E900E000D800D000C8003E
:08257000C100B900B200AC008B
:042578005501000801
:04257C003101000821
:08258000FF020020CDAB0000BA
:04000005080020AD22
:00000001FF
